{
  "contractName": "DataStorage",
  "abi": [
    {
      "anonymous": false,
      "inputs": [
        {
          "indexed": true,
          "internalType": "address",
          "name": "user",
          "type": "address"
        },
        {
          "indexed": false,
          "internalType": "string",
          "name": "encryptedData",
          "type": "string"
        }
      ],
      "name": "DataStored",
      "type": "event"
    },
    {
      "inputs": [
        {
          "internalType": "address",
          "name": "",
          "type": "address"
        }
      ],
      "name": "userStorage",
      "outputs": [
        {
          "internalType": "string",
          "name": "encryptedData",
          "type": "string"
        },
        {
          "internalType": "address",
          "name": "owner",
          "type": "address"
        }
      ],
      "stateMutability": "view",
      "type": "function",
      "constant": true
    },
    {
      "inputs": [
        {
          "internalType": "string",
          "name": "_encryptedData",
          "type": "string"
        }
      ],
      "name": "storeData",
      "outputs": [],
      "stateMutability": "nonpayable",
      "type": "function"
    },
    {
      "inputs": [],
      "name": "retrieveData",
      "outputs": [
        {
          "internalType": "string",
          "name": "",
          "type": "string"
        }
      ],
      "stateMutability": "view",
      "type": "function",
      "constant": true
    }
  ],
  "bytecode": "0x608060405234801561001057600080fd5b506108a1806100206000396000f3fe608060405234801561001057600080fd5b50600436106100415760003560e01c806351e0556d14610046578063e655dfca14610064578063fb218f5f14610095575b600080fd5b61004e6100b1565b60405161005b9190610650565b60405180910390f35b61007e6004803603810190610079919061055e565b610251565b60405161008c929190610672565b60405180910390f35b6100af60048036038101906100aa9190610587565b61031d565b005b60603373ffffffffffffffffffffffffffffffffffffffff166000803373ffffffffffffffffffffffffffffffffffffffff1673ffffffffffffffffffffffffffffffffffffffff16815260200190815260200160002060010160009054906101000a900473ffffffffffffffffffffffffffffffffffffffff1673ffffffffffffffffffffffffffffffffffffffff1614610182576040517f08c379a0000000000000000000000000000000000000000000000000000000008152600401610179906106a2565b60405180910390fd5b6000803373ffffffffffffffffffffffffffffffffffffffff1673ffffffffffffffffffffffffffffffffffffffff16815260200190815260200160002060000180546101ce906107b3565b80601f01602080910402602001604051908101604052809291908181526020018280546101fa906107b3565b80156102475780601f1061021c57610100808354040283529160200191610247565b820191906000526020600020905b81548152906001019060200180831161022a57829003601f168201915b5050505050905090565b6000602052806000526040600020600091509050806000018054610274906107b3565b80601f01602080910402602001604051908101604052809291908181526020018280546102a0906107b3565b80156102ed5780601f106102c2576101008083540402835291602001916102ed565b820191906000526020600020905b8154815290600101906020018083116102d057829003601f168201915b5050505050908060010160009054906101000a900473ffffffffffffffffffffffffffffffffffffffff16905082565b60405180604001604052808281526020013373ffffffffffffffffffffffffffffffffffffffff168152506000803373ffffffffffffffffffffffffffffffffffffffff1673ffffffffffffffffffffffffffffffffffffffff16815260200190815260200160002060008201518160000190805190602001906103a292919061043e565b5060208201518160010160006101000a81548173ffffffffffffffffffffffffffffffffffffffff021916908373ffffffffffffffffffffffffffffffffffffffff1602179055509050503373ffffffffffffffffffffffffffffffffffffffff167f4b33dafb50dac5530c30aca4e4069fd67a18220888b874b8519558d1769d49a1826040516104339190610650565b60405180910390a250565b82805461044a906107b3565b90600052602060002090601f01602090048101928261046c57600085556104b3565b82601f1061048557805160ff19168380011785556104b3565b828001600101855582156104b3579182015b828111156104b2578251825591602001919060010190610497565b5b5090506104c091906104c4565b5090565b5b808211156104dd5760008160009055506001016104c5565b5090565b60006104f46104ef846106f3565b6106c2565b90508281526020810184848401111561050c57600080fd5b610517848285610771565b509392505050565b60008135905061052e81610854565b92915050565b600082601f83011261054557600080fd5b81356105558482602086016104e1565b91505092915050565b60006020828403121561057057600080fd5b600061057e8482850161051f565b91505092915050565b60006020828403121561059957600080fd5b600082013567ffffffffffffffff8111156105b357600080fd5b6105bf84828501610534565b91505092915050565b6105d18161073f565b82525050565b60006105e282610723565b6105ec818561072e565b93506105fc818560208601610780565b61060581610843565b840191505092915050565b600061061d60198361072e565b91507f4e6f7420746865206f776e6572206f66207468652064617461000000000000006000830152602082019050919050565b6000602082019050818103600083015261066a81846105d7565b905092915050565b6000604082019050818103600083015261068c81856105d7565b905061069b60208301846105c8565b9392505050565b600060208201905081810360008301526106bb81610610565b9050919050565b6000604051905081810181811067ffffffffffffffff821117156106e9576106e8610814565b5b8060405250919050565b600067ffffffffffffffff82111561070e5761070d610814565b5b601f19601f8301169050602081019050919050565b600081519050919050565b600082825260208201905092915050565b600061074a82610751565b9050919050565b600073ffffffffffffffffffffffffffffffffffffffff82169050919050565b82818337600083830152505050565b60005b8381101561079e578082015181840152602081019050610783565b838111156107ad576000848401525b50505050565b600060028204905060018216806107cb57607f821691505b602082108114156107df576107de6107e5565b5b50919050565b7f4e487b7100000000000000000000000000000000000000000000000000000000600052602260045260246000fd5b7f4e487b7100000000000000000000000000000000000000000000000000000000600052604160045260246000fd5b6000601f19601f8301169050919050565b61085d8161073f565b811461086857600080fd5b5056fea2646970667358221220da0e619aa684194f8ed684d602e1e87ef02e16e1e264055017bfefc2ba36165f64736f6c63430008000033",
  "immutableReferences": {},
  "source": "// SPDX-License-Identifier: MIT\npragma solidity ^0.8.0;\n\ncontract DataStorage {\n\n    struct UserData {\n        string encryptedData;\n        address owner;\n    }\n\n    mapping(address => UserData) public userStorage;\n\n    // Event to log data updates\n    event DataStored(address indexed user, string encryptedData);\n\n    // Store the encrypted data on the blockchain\n    function storeData(string memory _encryptedData) public {\n        userStorage[msg.sender] = UserData({\n            encryptedData: _encryptedData,\n            owner: msg.sender\n        });\n        emit DataStored(msg.sender, _encryptedData);\n    }\n\n    // Retrieve the encrypted data\n    function retrieveData() public view returns (string memory) {\n        require(userStorage[msg.sender].owner == msg.sender, \"Not the owner of the data\");\n        return userStorage[msg.sender].encryptedData;\n    }\n}",
  "sourcePath": "/Users/MAC/data-blockchain/contracts/DataStorage.sol",
  "compiler": {
    "name": "solc",
    "version": "0.8.0+commit.c7dfd78e.Emscripten.clang"
  },
  "schemaVersion": "3.4.16",
  "updatedAt": "2024-09-10T00:02:23.831Z",
  "networkType": "ethereum",
  "devdoc": {
    "kind": "dev",
    "methods": {},
    "version": 1
  },
  "userdoc": {
    "kind": "user",
    "methods": {},
    "version": 1
  }
}