{
  "contractName": "DataStorage",
  "abi": [
    {
      "anonymous": false,
      "inputs": [
        {
          "indexed": true,
          "internalType": "address",
          "name": "user",
          "type": "address"
        },
        {
          "indexed": false,
          "internalType": "string",
          "name": "nin",
          "type": "string"
        },
        {
          "indexed": false,
          "internalType": "string",
          "name": "bvn",
          "type": "string"
        },
        {
          "indexed": false,
          "internalType": "string",
          "name": "passport",
          "type": "string"
        },
        {
          "indexed": false,
          "internalType": "string",
          "name": "publicKey",
          "type": "string"
        }
      ],
      "name": "DataStored",
      "type": "event"
    },
    {
      "inputs": [
        {
          "internalType": "string",
          "name": "_nin",
          "type": "string"
        },
        {
          "internalType": "string",
          "name": "_bvn",
          "type": "string"
        },
        {
          "internalType": "string",
          "name": "_passport",
          "type": "string"
        },
        {
          "internalType": "string",
          "name": "_publicKey",
          "type": "string"
        }
      ],
      "name": "storeData",
      "outputs": [],
      "stateMutability": "nonpayable",
      "type": "function"
    },
    {
      "inputs": [],
      "name": "retrieveData",
      "outputs": [
        {
          "internalType": "string",
          "name": "nin",
          "type": "string"
        },
        {
          "internalType": "string",
          "name": "bvn",
          "type": "string"
        },
        {
          "internalType": "string",
          "name": "passport",
          "type": "string"
        },
        {
          "internalType": "string",
          "name": "publicKey",
          "type": "string"
        }
      ],
      "stateMutability": "view",
      "type": "function"
    }
  ],
  "bytecode": "0x608060405234801561001057600080fd5b5061086a806100206000396000f3fe608060405234801561001057600080fd5b50600436106100365760003560e01c8063324e0ce51461003b57806351e0556d14610057575b600080fd5b61005560048036038101906100509190610577565b610078565b005b61005f6101ae565b60405161006f9493929190610673565b60405180910390f35b60006040518060800160405280868152602001858152602001848152602001838152509050806000803373ffffffffffffffffffffffffffffffffffffffff1673ffffffffffffffffffffffffffffffffffffffff16815260200190815260200160002060008201518160000190805190602001906100f892919061046c565b50602082015181600101908051906020019061011592919061046c565b50604082015181600201908051906020019061013292919061046c565b50606082015181600301908051906020019061014f92919061046c565b509050503373ffffffffffffffffffffffffffffffffffffffff167ff50e85e3e7dbc761554707eaa1e7cf253f44a6d34b1ac66151c09aa480d0fbee8686868660405161019f9493929190610673565b60405180910390a25050505050565b60608060608060008060003373ffffffffffffffffffffffffffffffffffffffff1673ffffffffffffffffffffffffffffffffffffffff16815260200190815260200160002060405180608001604052908160008201805461020f90610793565b80601f016020809104026020016040519081016040528092919081815260200182805461023b90610793565b80156102885780601f1061025d57610100808354040283529160200191610288565b820191906000526020600020905b81548152906001019060200180831161026b57829003601f168201915b505050505081526020016001820180546102a190610793565b80601f01602080910402602001604051908101604052809291908181526020018280546102cd90610793565b801561031a5780601f106102ef5761010080835404028352916020019161031a565b820191906000526020600020905b8154815290600101906020018083116102fd57829003601f168201915b5050505050815260200160028201805461033390610793565b80601f016020809104026020016040519081016040528092919081815260200182805461035f90610793565b80156103ac5780601f10610381576101008083540402835291602001916103ac565b820191906000526020600020905b81548152906001019060200180831161038f57829003601f168201915b505050505081526020016003820180546103c590610793565b80601f01602080910402602001604051908101604052809291908181526020018280546103f190610793565b801561043e5780601f106104135761010080835404028352916020019161043e565b820191906000526020600020905b81548152906001019060200180831161042157829003601f168201915b5050505050815250509050806000015181602001518260400151836060015194509450945094505090919293565b82805461047890610793565b90600052602060002090601f01602090048101928261049a57600085556104e1565b82601f106104b357805160ff19168380011785556104e1565b828001600101855582156104e1579182015b828111156104e05782518255916020019190600101906104c5565b5b5090506104ee91906104f2565b5090565b5b8082111561050b5760008160009055506001016104f3565b5090565b600061052261051d84610705565b6106d4565b90508281526020810184848401111561053a57600080fd5b610545848285610751565b509392505050565b600082601f83011261055e57600080fd5b813561056e84826020860161050f565b91505092915050565b6000806000806080858703121561058d57600080fd5b600085013567ffffffffffffffff8111156105a757600080fd5b6105b38782880161054d565b945050602085013567ffffffffffffffff8111156105d057600080fd5b6105dc8782880161054d565b935050604085013567ffffffffffffffff8111156105f957600080fd5b6106058782880161054d565b925050606085013567ffffffffffffffff81111561062257600080fd5b61062e8782880161054d565b91505092959194509250565b600061064582610735565b61064f8185610740565b935061065f818560208601610760565b61066881610823565b840191505092915050565b6000608082019050818103600083015261068d818761063a565b905081810360208301526106a1818661063a565b905081810360408301526106b5818561063a565b905081810360608301526106c9818461063a565b905095945050505050565b6000604051905081810181811067ffffffffffffffff821117156106fb576106fa6107f4565b5b8060405250919050565b600067ffffffffffffffff8211156107205761071f6107f4565b5b601f19601f8301169050602081019050919050565b600081519050919050565b600082825260208201905092915050565b82818337600083830152505050565b60005b8381101561077e578082015181840152602081019050610763565b8381111561078d576000848401525b50505050565b600060028204905060018216806107ab57607f821691505b602082108114156107bf576107be6107c5565b5b50919050565b7f4e487b7100000000000000000000000000000000000000000000000000000000600052602260045260246000fd5b7f4e487b7100000000000000000000000000000000000000000000000000000000600052604160045260246000fd5b6000601f19601f830116905091905056fea2646970667358221220caf0f758a184b43239fc579913bd49d0abc0728c6b7fd29f7d82fec9a12d884064736f6c63430008000033",
  "immutableReferences": {},
  "source": "// SPDX-License-Identifier: MIT\npragma solidity ^0.8.0;\n\ncontract DataStorage {\n    struct KYCData {\n        string nin;\n        string bvn;\n        string passport;\n        string publicKey;\n    }\n\n    mapping(address => KYCData) private kycRecords;\n\n    event DataStored(address indexed user, string nin, string bvn, string passport, string publicKey);\n\n    // Store KYC Data\n    function storeData(string memory _nin, string memory _bvn, string memory _passport, string memory _publicKey) public {\n        KYCData memory newRecord = KYCData({\n            nin: _nin,\n            bvn: _bvn,\n            passport: _passport,\n            publicKey: _publicKey\n        });\n\n        kycRecords[msg.sender] = newRecord;\n        emit DataStored(msg.sender, _nin, _bvn, _passport, _publicKey);\n    }\n\n    // Retrieve KYC Data\n    function retrieveData() public view returns (string memory nin, string memory bvn, string memory passport, string memory publicKey) {\n        KYCData memory record = kycRecords[msg.sender];\n        return (record.nin, record.bvn, record.passport, record.publicKey);\n    }\n}",
  "sourcePath": "/Users/MAC/Documents/data-blockchain/contracts/DataStorage.sol",
  "compiler": {
    "name": "solc",
    "version": "0.8.0+commit.c7dfd78e.Emscripten.clang"
  },
  "schemaVersion": "3.4.16",
  "updatedAt": "2024-09-11T08:06:20.917Z",
  "devdoc": {
    "kind": "dev",
    "methods": {},
    "version": 1
  },
  "userdoc": {
    "kind": "user",
    "methods": {},
    "version": 1
  }
}